:0A00000002000E01260001110000AD
:10000B000201CC787FE4F6D8FD75812E02005502F3
:10001B00011FE493A3F8E493A34003F68001F208D5
:10002B00DFF48029E493A3F85407240CC8C333C42A
:10003B00540F4420C8834004F456800146F6DFE495
:10004B00800B0102040810204080900003E47E0125
:10005B009360BCA3FF543F30E509541FFEE493A308
:10006B0060010ECF54C025E060A840B8E493A3FA1A
:10007B00E493A3F8E493A3C8C582C8CAC583CAF0A6
:10008B00A3C8C582C8CAC583CADFE9DEE780BEE55F
:10009B00112492601824FC603724727038E4F51137
:1000AB00E4F510120112752E147D6E80201200E4FF
:1000BB00D3E5106480948940EAE4F510D3E510642D
:1000CB0080948950DB120112752E327D720201FD74
:1000DB001200E480E7E4F51122AF10EF3395E0FE58
:1000EB00740D2FF58274023EF583E493F5900510A1
:1000FB0022E52825E025E02412F822E52825E02535
:10010B00E02413F802018B7B007A007911752C0225
:10011B00752D0022E4F5B1F5B27590FF12020912AC
:10012B0001E1D2B2F5277513FF7514017515F07542
:10013B0017FF75180175199A751BFF751C00751D36
:10014B009A12015412020980F8E4F528120106E90B
:10015B004A60111200FCE6700B1200FC76FF1201D4
:10016B00061201940528E528C3940540DF22BB0144
:10017B000689828A83F0225002F722BBFE01F3220A
:10018B00E6FB08E6FA08E6F9228A838982E4732003
:10019B00B2100526D3E52664809494400875C76099
:1001AB008003E4F52675160522E4FFEF1200FEE648
:1001BB00D3648094804005EF1200FE160FBF05EB51
:1001CB0022C0E0C0D075D008758AFF758CB71201BC
:1001DB00B4D0D0D0E03275892143A882758AFF75DF
:1001EB008CB7D28C22B2A430A40475122D227512B6
:1001FB000522ED120179E52C1200FEA62E2275C107
:10020B003C22246FE0622B32306720222138B46805
:02021B00B0B180
:00000001FF
